{
  "contractName": "Throw",
  "abi": [
    {
      "constant": true,
      "inputs": [],
      "name": "status",
      "outputs": [
        {
          "name": "",
          "type": "uint8"
        }
      ],
      "payable": false,
      "stateMutability": "view",
      "type": "function"
    },
    {
      "constant": true,
      "inputs": [
        {
          "name": "",
          "type": "uint256"
        }
      ],
      "name": "bets",
      "outputs": [
        {
          "name": "heads",
          "type": "address"
        },
        {
          "name": "tails",
          "type": "address"
        },
        {
          "name": "amount",
          "type": "uint256"
        }
      ],
      "payable": false,
      "stateMutability": "view",
      "type": "function"
    },
    {
      "constant": true,
      "inputs": [
        {
          "name": "",
          "type": "address"
        }
      ],
      "name": "balances",
      "outputs": [
        {
          "name": "",
          "type": "uint256"
        }
      ],
      "payable": false,
      "stateMutability": "view",
      "type": "function"
    },
    {
      "constant": false,
      "inputs": [
        {
          "name": "idx",
          "type": "uint256"
        }
      ],
      "name": "illTakeYa",
      "outputs": [],
      "payable": true,
      "stateMutability": "payable",
      "type": "function"
    },
    {
      "constant": false,
      "inputs": [],
      "name": "claim",
      "outputs": [],
      "payable": true,
      "stateMutability": "payable",
      "type": "function"
    },
    {
      "constant": true,
      "inputs": [],
      "name": "getHeadersCount",
      "outputs": [
        {
          "name": "",
          "type": "uint256"
        }
      ],
      "payable": false,
      "stateMutability": "view",
      "type": "function"
    },
    {
      "constant": true,
      "inputs": [
        {
          "name": "",
          "type": "uint256"
        }
      ],
      "name": "headers",
      "outputs": [
        {
          "name": "owner",
          "type": "address"
        },
        {
          "name": "amount",
          "type": "uint256"
        }
      ],
      "payable": false,
      "stateMutability": "view",
      "type": "function"
    },
    {
      "constant": true,
      "inputs": [],
      "name": "getThrowTime",
      "outputs": [
        {
          "name": "",
          "type": "uint256"
        }
      ],
      "payable": false,
      "stateMutability": "view",
      "type": "function"
    },
    {
      "constant": false,
      "inputs": [],
      "name": "destroy",
      "outputs": [],
      "payable": false,
      "stateMutability": "nonpayable",
      "type": "function"
    },
    {
      "constant": true,
      "inputs": [],
      "name": "getBetsCount",
      "outputs": [
        {
          "name": "",
          "type": "uint256"
        }
      ],
      "payable": false,
      "stateMutability": "view",
      "type": "function"
    },
    {
      "constant": true,
      "inputs": [],
      "name": "owner",
      "outputs": [
        {
          "name": "",
          "type": "address"
        }
      ],
      "payable": false,
      "stateMutability": "view",
      "type": "function"
    },
    {
      "constant": false,
      "inputs": [
        {
          "name": "_commission",
          "type": "uint256"
        }
      ],
      "name": "updateCommission",
      "outputs": [],
      "payable": false,
      "stateMutability": "nonpayable",
      "type": "function"
    },
    {
      "constant": false,
      "inputs": [],
      "name": "throwIt",
      "outputs": [],
      "payable": false,
      "stateMutability": "nonpayable",
      "type": "function"
    },
    {
      "constant": false,
      "inputs": [],
      "name": "headEmUp",
      "outputs": [],
      "payable": true,
      "stateMutability": "payable",
      "type": "function"
    },
    {
      "constant": true,
      "inputs": [],
      "name": "throwTime",
      "outputs": [
        {
          "name": "",
          "type": "uint256"
        }
      ],
      "payable": false,
      "stateMutability": "view",
      "type": "function"
    },
    {
      "constant": true,
      "inputs": [],
      "name": "commission",
      "outputs": [
        {
          "name": "",
          "type": "uint256"
        }
      ],
      "payable": false,
      "stateMutability": "view",
      "type": "function"
    },
    {
      "constant": false,
      "inputs": [
        {
          "name": "newOwner",
          "type": "address"
        }
      ],
      "name": "transferOwnership",
      "outputs": [],
      "payable": false,
      "stateMutability": "nonpayable",
      "type": "function"
    },
    {
      "constant": false,
      "inputs": [
        {
          "name": "_recipient",
          "type": "address"
        }
      ],
      "name": "destroyAndSend",
      "outputs": [],
      "payable": false,
      "stateMutability": "nonpayable",
      "type": "function"
    },
    {
      "inputs": [
        {
          "name": "_throwTime",
          "type": "uint256"
        }
      ],
      "payable": false,
      "stateMutability": "nonpayable",
      "type": "constructor"
    },
    {
      "payable": true,
      "stateMutability": "payable",
      "type": "fallback"
    },
    {
      "anonymous": false,
      "inputs": [
        {
          "indexed": false,
          "name": "msg",
          "type": "string"
        },
        {
          "indexed": false,
          "name": "value",
          "type": "uint256"
        }
      ],
      "name": "Log",
      "type": "event"
    },
    {
      "anonymous": false,
      "inputs": [
        {
          "indexed": true,
          "name": "previousOwner",
          "type": "address"
        },
        {
          "indexed": true,
          "name": "newOwner",
          "type": "address"
        }
      ],
      "name": "OwnershipTransferred",
      "type": "event"
    }
  ],
  "bytecode": "0x60606040526000600460006101000a81548160ff0219169083600281111561002357fe5b0217905550600a600555341561003857600080fd5b60405160208061122083398101604052808051906020019091905050336000806101000a81548173ffffffffffffffffffffffffffffffffffffffff021916908373ffffffffffffffffffffffffffffffffffffffff16021790555042811115156100a257600080fd5b8060038190555050611167806100b96000396000f3006060604052600436106100fc576000357c0100000000000000000000000000000000000000000000000000000000900463ffffffff168063200d2ed21461010657806322af00fa1461013d57806327e235e3146101da5780632f043172146102275780634e71d92d1461023f578063562e874a1461024957806356f90d791461027257806362004b1c146102dc57806383197ef0146103055780638c7e347a1461031a5780638da5cb5b146103435780639d55fba714610398578063ab5c4ce5146103bb578063bfa68093146103d0578063c73f36de146103da578063e148919114610403578063f2fde38b1461042c578063f5074f4114610465575b61010461049e565b005b341561011157600080fd5b61011961058c565b6040518082600281111561012957fe5b60ff16815260200191505060405180910390f35b341561014857600080fd5b61015e600480803590602001909190505061059f565b604051808473ffffffffffffffffffffffffffffffffffffffff1673ffffffffffffffffffffffffffffffffffffffff1681526020018373ffffffffffffffffffffffffffffffffffffffff1673ffffffffffffffffffffffffffffffffffffffff168152602001828152602001935050505060405180910390f35b34156101e557600080fd5b610211600480803573ffffffffffffffffffffffffffffffffffffffff16906020019091905050610618565b6040518082815260200191505060405180910390f35b61023d6004808035906020019091905050610630565b005b6102476107c3565b005b341561025457600080fd5b61025c6108f2565b6040518082815260200191505060405180910390f35b341561027d57600080fd5b61029360048080359060200190919050506108ff565b604051808373ffffffffffffffffffffffffffffffffffffffff1673ffffffffffffffffffffffffffffffffffffffff1681526020018281526020019250505060405180910390f35b34156102e757600080fd5b6102ef610952565b6040518082815260200191505060405180910390f35b341561031057600080fd5b61031861095c565b005b341561032557600080fd5b61032d6109f1565b6040518082815260200191505060405180910390f35b341561034e57600080fd5b6103566109fe565b604051808273ffffffffffffffffffffffffffffffffffffffff1673ffffffffffffffffffffffffffffffffffffffff16815260200191505060405180910390f35b34156103a357600080fd5b6103b96004808035906020019091905050610a23565b005b34156103c657600080fd5b6103ce610a70565b005b6103d861049e565b005b34156103e557600080fd5b6103ed610d75565b6040518082815260200191505060405180910390f35b341561040e57600080fd5b610416610d7b565b6040518082815260200191505060405180910390f35b341561043757600080fd5b610463600480803573ffffffffffffffffffffffffffffffffffffffff16906020019091905050610d81565b005b341561047057600080fd5b61049c600480803573ffffffffffffffffffffffffffffffffffffffff16906020019091905050610ed6565b005b600060028111156104ab57fe5b600460009054906101000a900460ff1660028111156104c657fe5b1415156104d257600080fd5b426003541115156104e257600080fd5b600280548060010182816104f69190611014565b9160005260206000209060020201600060408051908101604052803373ffffffffffffffffffffffffffffffffffffffff16815260200134815250909190915060008201518160000160006101000a81548173ffffffffffffffffffffffffffffffffffffffff021916908373ffffffffffffffffffffffffffffffffffffffff16021790555060208201518160010155505050565b600460009054906101000a900460ff1681565b6001818154811015156105ae57fe5b90600052602060002090600302016000915090508060000160009054906101000a900473ffffffffffffffffffffffffffffffffffffffff16908060010160009054906101000a900473ffffffffffffffffffffffffffffffffffffffff16908060020154905083565b60066020528060005260406000206000915090505481565b6000600281111561063d57fe5b600460009054906101000a900460ff16600281111561065857fe5b14151561066457600080fd5b4260035411151561067457600080fd5b600180548060010182816106889190611046565b916000526020600020906003020160006060604051908101604052806002868154811015156106b357fe5b906000526020600020906002020160000160009054906101000a900473ffffffffffffffffffffffffffffffffffffffff1673ffffffffffffffffffffffffffffffffffffffff1681526020013373ffffffffffffffffffffffffffffffffffffffff16815260200134815250909190915060008201518160000160006101000a81548173ffffffffffffffffffffffffffffffffffffffff021916908373ffffffffffffffffffffffffffffffffffffffff16021790555060208201518160010160006101000a81548173ffffffffffffffffffffffffffffffffffffffff021916908373ffffffffffffffffffffffffffffffffffffffff1602179055506040820151816002015550505050565b6000600160028111156107d257fe5b600460009054906101000a900460ff1660028111156107ed57fe5b148061081d575060028081111561080057fe5b600460009054906101000a900460ff16600281111561081b57fe5b145b151561082857600080fd5b600660003373ffffffffffffffffffffffffffffffffffffffff1673ffffffffffffffffffffffffffffffffffffffff1681526020019081526020016000205490506000600660003373ffffffffffffffffffffffffffffffffffffffff1673ffffffffffffffffffffffffffffffffffffffff168152602001908152602001600020819055503373ffffffffffffffffffffffffffffffffffffffff166108fc829081150290604051600060405180830381858888f1935050505015156108ef57600080fd5b50565b6000600280549050905090565b60028181548110151561090e57fe5b90600052602060002090600202016000915090508060000160009054906101000a900473ffffffffffffffffffffffffffffffffffffffff16908060010154905082565b6000600354905090565b6000809054906101000a900473ffffffffffffffffffffffffffffffffffffffff1673ffffffffffffffffffffffffffffffffffffffff163373ffffffffffffffffffffffffffffffffffffffff161415156109b757600080fd5b6000809054906101000a900473ffffffffffffffffffffffffffffffffffffffff1673ffffffffffffffffffffffffffffffffffffffff16ff5b6000600180549050905090565b6000809054906101000a900473ffffffffffffffffffffffffffffffffffffffff1681565b60006002811115610a3057fe5b600460009054906101000a900460ff166002811115610a4b57fe5b141515610a5757600080fd5b600081111515610a6657600080fd5b8060058190555050565b60008060008060006002811115610a8357fe5b600460009054906101000a900460ff166002811115610a9e57fe5b141515610aaa57600080fd5b4260035411151515610abb57600080fd5b60016002610ac9600a610f4a565b811515610ad257fe5b061415610b02576001600460006101000a81548160ff02191690836002811115610af857fe5b0217905550610b27565b6002600460006101000a81548160ff02191690836002811115610b2157fe5b02179055505b60009350600092505b600180549050831015610d0e57610b716002600185815481101515610b5157fe5b906000526020600020906003020160020154610f8790919063ffffffff16565b9150610b9b6064610b8d84600554610f8790919063ffffffff16565b610fc290919063ffffffff16565b9050610bb08185610fdd90919063ffffffff16565b9350610bc58183610ffb90919063ffffffff16565b915060016002811115610bd457fe5b600460009054906101000a900460ff166002811115610bef57fe5b1415610c7e578160066000600186815481101515610c0957fe5b906000526020600020906003020160000160009054906101000a900473ffffffffffffffffffffffffffffffffffffffff1673ffffffffffffffffffffffffffffffffffffffff1673ffffffffffffffffffffffffffffffffffffffff16815260200190815260200160002081905550610d03565b8160066000600186815481101515610c9257fe5b906000526020600020906003020160010160009054906101000a900473ffffffffffffffffffffffffffffffffffffffff1673ffffffffffffffffffffffffffffffffffffffff1673ffffffffffffffffffffffffffffffffffffffff168152602001908152602001600020819055505b826001019250610b30565b6000809054906101000a900473ffffffffffffffffffffffffffffffffffffffff1673ffffffffffffffffffffffffffffffffffffffff166108fc829081150290604051600060405180830381858888f193505050501515610d6f57600080fd5b50505050565b60035481565b60055481565b6000809054906101000a900473ffffffffffffffffffffffffffffffffffffffff1673ffffffffffffffffffffffffffffffffffffffff163373ffffffffffffffffffffffffffffffffffffffff16141515610ddc57600080fd5b600073ffffffffffffffffffffffffffffffffffffffff168173ffffffffffffffffffffffffffffffffffffffff1614151515610e1857600080fd5b8073ffffffffffffffffffffffffffffffffffffffff166000809054906101000a900473ffffffffffffffffffffffffffffffffffffffff1673ffffffffffffffffffffffffffffffffffffffff167f8be0079c531659141344cd1fd0a4f28419497f9722a3daafe3b4186f6b6457e060405160405180910390a3806000806101000a81548173ffffffffffffffffffffffffffffffffffffffff021916908373ffffffffffffffffffffffffffffffffffffffff16021790555050565b6000809054906101000a900473ffffffffffffffffffffffffffffffffffffffff1673ffffffffffffffffffffffffffffffffffffffff163373ffffffffffffffffffffffffffffffffffffffff16141515610f3157600080fd5b8073ffffffffffffffffffffffffffffffffffffffff16ff5b60006001826001430340604051808260001916600019168152602001915050604051809103902060019004811515610f7e57fe5b06019050919050565b6000806000841415610f9c5760009150610fbb565b8284029050828482811515610fad57fe5b04141515610fb757fe5b8091505b5092915050565b6000808284811515610fd057fe5b0490508091505092915050565b6000808284019050838110151515610ff157fe5b8091505092915050565b600082821115151561100957fe5b818303905092915050565b815481835581811511611041576002028160020283600052602060002091820191016110409190611078565b5b505050565b8154818355818115116110735760030281600302836000526020600020918201910161107291906110c6565b5b505050565b6110c391905b808211156110bf57600080820160006101000a81549073ffffffffffffffffffffffffffffffffffffffff021916905560018201600090555060020161107e565b5090565b90565b61113891905b8082111561113457600080820160006101000a81549073ffffffffffffffffffffffffffffffffffffffff02191690556001820160006101000a81549073ffffffffffffffffffffffffffffffffffffffff02191690556002820160009055506003016110cc565b5090565b905600a165627a7a72305820e67ca281edf21e6a6b857426aa7f528c48391d197188ef8010626adf25cb88bf0029",
  "source": "pragma solidity 0.4.18;\n\nimport 'zeppelin-solidity/contracts/lifecycle/Destructible.sol';\nimport 'zeppelin-solidity/contracts/math/SafeMath.sol';\n\ncontract Throw is Destructible {\n  using SafeMath for uint;\n\n  event Log(string msg, uint value);\n\n  enum Status { NotThrown, Heads, Tails }\n\n  struct Header {\n    address owner;\n    uint amount;\n  }\n\n  struct Bet {\n    address heads;\n    address tails;\n    uint amount;\n  }\n\n  Bet[] public bets;\n  Header[] public headers;\n  uint public throwTime;\n  Status public status = Status.NotThrown;\n  uint public commission = 10;\n  mapping(address => uint) public balances;\n\n  modifier notThrown() {\n    require(status == Status.NotThrown);\n    _;\n  }\n\n  modifier thrown() {\n    require(status == Status.Heads || status == Status.Tails);\n    _;\n  }\n\n  modifier beforeThrow() {\n    require(throwTime > now);\n    _;\n  }\n\n  modifier afterThrow() {\n    require(throwTime <= now);\n    _;\n  }\n\n  /*****\n   * @dev Create the contract\n   * @param _throwTime   uint When a throw will take place (timestamp)\n   */\n  function Throw(uint _throwTime) public {\n    require(_throwTime > now);\n\n    throwTime = _throwTime;\n  }\n\n  // TODO - Should return the uint idx of the HeaderBet\n  function headEmUp() public payable notThrown beforeThrow {\n    headers.push(Header({\n      owner: msg.sender,\n      amount: msg.value\n    }));\n  }\n\n  // Fallback function makes a heads bet\n  function () external payable {\n    headEmUp();\n  }\n\n  function illTakeYa(uint idx) public payable notThrown beforeThrow {\n    bets.push(Bet({\n      heads: headers[idx].owner,\n      tails: msg.sender,\n      amount: msg.value\n    }));\n  }\n\n  function throwIt() public notThrown afterThrow {\n    if (getRandom(10) % 2 == 1) {\n      status = Status.Heads;\n    } else {\n      status = Status.Tails;\n    }\n\n    uint take = 0;\n\n    for (uint i = 0; i < bets.length; ++i) {\n      uint winnings = bets[i].amount.mul(2);\n      uint fee = commission.mul(winnings).div(100);\n\n      take = take.add(fee);\n      winnings = winnings.sub(fee);\n\n      if (status == Status.Heads) {\n        balances[bets[i].heads] = winnings;\n      } else {\n        balances[bets[i].tails] = winnings;\n      }\n    }\n\n    // Transfer\n    owner.transfer(fee);\n  }\n\n  // function getHeaders() returns (uint256[]) {\n  //     return idsForContract[_contractAddress];\n  // }\n\n  function getRandom(uint max) internal constant returns (uint randomNumber) {\n    return (uint(keccak256(block.blockhash(block.number - 1))) % max) + 1;\n  }\n\n  function claim() public thrown payable {\n    uint amount = balances[msg.sender];\n    balances[msg.sender] = 0;\n    msg.sender.transfer(amount);\n  }\n\n  function getHeadersCount() public constant returns (uint256) {\n    return headers.length;\n  }\n  function getThrowTime() public constant returns (uint) {\n    return throwTime;\n  }\n\n  function getBetsCount() public constant returns (uint256) {\n    return bets.length;\n  }\n\n  function updateCommission(uint256 _commission) public notThrown {\n      require(_commission > 0);\n\n      commission = _commission;\n  }\n\n}\n",
  "sourcePath": "/Users/craigmorris/Dev/twocoinsoneblock/contracts/Throw.sol",
  "compiler": {
    "name": "solc",
    "version": "0.4.18+commit.9cf6e910.Emscripten.clang"
  },
  "schemaVersion": "1.0.1",
  "updatedAt": "2018-02-04T15:09:47.720Z"
}