{
  "contractName": "SetsAndEvents",
  "abi": [
    {
      "constant": false,
      "inputs": [],
      "name": "noop",
      "outputs": [],
      "payable": false,
      "stateMutability": "nonpayable",
      "type": "function"
    },
    {
      "constant": true,
      "inputs": [],
      "name": "getNow",
      "outputs": [
        {
          "name": "time",
          "type": "uint256"
        }
      ],
      "payable": false,
      "stateMutability": "view",
      "type": "function"
    }
  ],
  "bytecode": "0x606060405260008060006101000a81548160ff021916908315150217905550341561002957600080fd5b60e4806100376000396000f3006060604052600436106049576000357c0100000000000000000000000000000000000000000000000000000000900463ffffffff1680635dfc2e4a14604e578063bbe4fd50146060575b600080fd5b3415605857600080fd5b605e6086565b005b3415606a57600080fd5b607060b0565b6040518082815260200191505060405180910390f35b6000809054906101000a900460ff16156000806101000a81548160ff021916908315150217905550565b6000429050905600a165627a7a72305820953676700f817f705b8d7a8cbf59baf0f6733ba348701475cd95a47f7ebd74400029",
  "source": "pragma solidity 0.4.18;\n\ncontract SetsAndEvents {\n\n  bool state = false;\n\n  function getNow () public constant returns (uint time) {\n      return now;\n  }\n\n  function noop () public {\n    state = ! state;\n  }\n\n}\n",
  "sourcePath": "/Users/craigmorris/Dev/vue-web3/contracts/SetsAndEvents.sol",
  "compiler": {
    "name": "solc",
    "version": "0.4.18+commit.9cf6e910.Emscripten.clang"
  },
  "schemaVersion": "1.0.1",
  "updatedAt": "2018-03-03T11:18:04.611Z"
}